{
  "fileName": "DerivedVestedTokens.sol",
  "contractName": "DerivedVestedTokens",
  "source": "pragma solidity ^0.5.0;\n\nimport \"./Vestable.sol\";\n\ncontract DerivedVestedTokens is Vestable {\n\n    // Start of vesting period begins expressed in UNIX time\n    uint256 private constant VESTING_START = 20;\n    // End of vesting period begins expressed in UNIX time\n    uint256 private constant VESTING_END = 120;\n\n    function lockIn(address holder, uint256 amount) public {\n        _lockIn(holder, amount);\n    }\n\n    /*\n     * @return UNIX time for the beginning of the vesting period\n     */\n    function _vestStart() private pure returns (uint256) {\n        return VESTING_START;\n    }\n\n    /*\n     * @return UNIX time for the end of the vesting period\n     */\n    function _vestEnd() private pure returns (uint256) {\n        return VESTING_END;\n    }\n}\n",
  "sourcePath": "contracts/DerivedVestedTokens.sol",
  "abi": [
    {
      "anonymous": false,
      "inputs": [
        {
          "indexed": true,
          "internalType": "address",
          "name": "holder",
          "type": "address"
        },
        {
          "indexed": false,
          "internalType": "uint256",
          "name": "amount",
          "type": "uint256"
        }
      ],
      "name": "TokensLocked",
      "type": "event"
    },
    {
      "constant": false,
      "inputs": [
        {
          "internalType": "address",
          "name": "holder",
          "type": "address"
        },
        {
          "internalType": "uint256",
          "name": "amount",
          "type": "uint256"
        }
      ],
      "name": "lockIn",
      "outputs": [],
      "payable": false,
      "stateMutability": "nonpayable",
      "type": "function"
    },
    {
      "constant": true,
      "inputs": [
        {
          "internalType": "address",
          "name": "holder",
          "type": "address"
        }
      ],
      "name": "locked",
      "outputs": [
        {
          "internalType": "uint256",
          "name": "",
          "type": "uint256"
        }
      ],
      "payable": false,
      "stateMutability": "view",
      "type": "function"
    },
    {
      "constant": true,
      "inputs": [
        {
          "internalType": "address",
          "name": "holder",
          "type": "address"
        },
        {
          "internalType": "uint256",
          "name": "time",
          "type": "uint256"
        }
      ],
      "name": "lockedAt",
      "outputs": [
        {
          "internalType": "uint256",
          "name": "",
          "type": "uint256"
        }
      ],
      "payable": false,
      "stateMutability": "view",
      "type": "function"
    },
    {
      "constant": true,
      "inputs": [
        {
          "internalType": "address",
          "name": "holder",
          "type": "address"
        }
      ],
      "name": "lockedNow",
      "outputs": [
        {
          "internalType": "uint256",
          "name": "",
          "type": "uint256"
        }
      ],
      "payable": false,
      "stateMutability": "view",
      "type": "function"
    },
    {
      "constant": true,
      "inputs": [],
      "name": "totalLocked",
      "outputs": [
        {
          "internalType": "uint256",
          "name": "",
          "type": "uint256"
        }
      ],
      "payable": false,
      "stateMutability": "view",
      "type": "function"
    },
    {
      "constant": true,
      "inputs": [],
      "name": "vestingEnd",
      "outputs": [
        {
          "internalType": "uint256",
          "name": "",
          "type": "uint256"
        }
      ],
      "payable": false,
      "stateMutability": "pure",
      "type": "function"
    },
    {
      "constant": true,
      "inputs": [],
      "name": "vestingStart",
      "outputs": [
        {
          "internalType": "uint256",
          "name": "",
          "type": "uint256"
        }
      ],
      "payable": false,
      "stateMutability": "pure",
      "type": "function"
    }
  ],
  "bytecode": "0x608060405234801561001057600080fd5b50610a3f806100206000396000f3fe608060405234801561001057600080fd5b506004361061007d5760003560e01c80636e86731b1161005b5780636e86731b1461012057806384a1931f146101785780638e37c2a614610196578063cbf9fe5f146101e45761007d565b8063254800d4146100825780634935f367146100a05780635689141214610102575b600080fd5b61008a61023c565b6040518082815260200191505060405180910390f35b6100ec600480360360408110156100b657600080fd5b81019080803573ffffffffffffffffffffffffffffffffffffffff1690602001909291908035906020019092919050505061024b565b6040518082815260200191505060405180910390f35b61010a610335565b6040518082815260200191505060405180910390f35b6101626004803603602081101561013657600080fd5b81019080803573ffffffffffffffffffffffffffffffffffffffff16906020019092919050505061033e565b6040518082815260200191505060405180910390f35b610180610351565b6040518082815260200191505060405180910390f35b6101e2600480360360408110156101ac57600080fd5b81019080803573ffffffffffffffffffffffffffffffffffffffff16906020019092919080359060200190929190505050610360565b005b610226600480360360208110156101fa57600080fd5b81019080803573ffffffffffffffffffffffffffffffffffffffff16906020019092919050505061036e565b6040518082815260200191505060405180910390f35b60006102466103b7565b905090565b600080610256610427565b905080831061026957600091505061032f565b6000600160008673ffffffffffffffffffffffffffffffffffffffff1673ffffffffffffffffffffffffffffffffffffffff16815260200190815260200160002054905060008111156103285760006102c06103b7565b90508085111561031d576103136102e0828561049790919063ffffffff16565b6103056102f6888761049790919063ffffffff16565b856104e190919063ffffffff16565b61056790919063ffffffff16565b935050505061032f565b81935050505061032f565b6000925050505b92915050565b60008054905090565b600061034a824261024b565b9050919050565b600061035b610427565b905090565b61036a82826105b1565b5050565b6000600160008373ffffffffffffffffffffffffffffffffffffffff1673ffffffffffffffffffffffffffffffffffffffff168152602001908152602001600020549050919050565b60006040517f08c379a00000000000000000000000000000000000000000000000000000000081526004018080602001828103825260118152602001807f6d757374206265207265646566696e656400000000000000000000000000000081525060200191505060405180910390fd5b60006040517f08c379a00000000000000000000000000000000000000000000000000000000081526004018080602001828103825260118152602001807f6d757374206265207265646566696e656400000000000000000000000000000081525060200191505060405180910390fd5b60006104d983836040518060400160405280601e81526020017f536166654d6174683a207375627472616374696f6e206f766572666c6f770000815250610798565b905092915050565b6000808314156104f45760009050610561565b600082840290508284828161050557fe5b041461055c576040517f08c379a00000000000000000000000000000000000000000000000000000000081526004018080602001828103825260218152602001806109ea6021913960400191505060405180910390fd5b809150505b92915050565b60006105a983836040518060400160405280601a81526020017f536166654d6174683a206469766973696f6e206279207a65726f000000000000815250610858565b905092915050565b600073ffffffffffffffffffffffffffffffffffffffff168273ffffffffffffffffffffffffffffffffffffffff161415610637576040517f08c379a00000000000000000000000000000000000000000000000000000000081526004018080602001828103825260218152602001806109a76021913960400191505060405180910390fd5b42610640610427565b11610696576040517f08c379a00000000000000000000000000000000000000000000000000000000081526004018080602001828103825260228152602001806109c86022913960400191505060405180910390fd5b6106ab8160005461091e90919063ffffffff16565b60008190555061070381600160008573ffffffffffffffffffffffffffffffffffffffff1673ffffffffffffffffffffffffffffffffffffffff1681526020019081526020016000205461091e90919063ffffffff16565b600160008473ffffffffffffffffffffffffffffffffffffffff1673ffffffffffffffffffffffffffffffffffffffff168152602001908152602001600020819055508173ffffffffffffffffffffffffffffffffffffffff167fac87f20a77d28ee8bbb58ec87ea8fa968b3393efae1a368fd50b767c2847391c826040518082815260200191505060405180910390a25050565b6000838311158290610845576040517f08c379a00000000000000000000000000000000000000000000000000000000081526004018080602001828103825283818151815260200191508051906020019080838360005b8381101561080a5780820151818401526020810190506107ef565b50505050905090810190601f1680156108375780820380516001836020036101000a031916815260200191505b509250505060405180910390fd5b5060008385039050809150509392505050565b60008083118290610904576040517f08c379a00000000000000000000000000000000000000000000000000000000081526004018080602001828103825283818151815260200191508051906020019080838360005b838110156108c95780820151818401526020810190506108ae565b50505050905090810190601f1680156108f65780820380516001836020036101000a031916815260200191505b509250505060405180910390fd5b50600083858161091057fe5b049050809150509392505050565b60008082840190508381101561099c576040517f08c379a000000000000000000000000000000000000000000000000000000000815260040180806020018281038252601b8152602001807f536166654d6174683a206164646974696f6e206f766572666c6f77000000000081525060200191505060405180910390fd5b809150509291505056fe566573746564546f6b656e733a207a65726f20686f6c6465722061646472657373566573746564546f6b656e733a2076657374696e6720706572696f6420656e646564536166654d6174683a206d756c7469706c69636174696f6e206f766572666c6f77a265627a7a72315820b988abadc4d486fa25522f7e4fe3bdaac654e4b1acc9b3aa43d4066e24addd4064736f6c63430005100032",
  "compiler": {
    "name": "solc",
    "version": "0.5.16+commit.9c3226ce.Emscripten.clang",
    "optimizer": {
      "enabled": false,
      "runs": 200
    },
    "evmVersion": "petersburg"
  }
}