{
  "fileName": "InnouTokensPreSale.sol",
  "contractName": "InnouTokensPreSale",
  "source": "pragma solidity ^0.5.0;\n\nimport \"@openzeppelin/contracts-ethereum-package/contracts/math/SafeMath.sol\";\nimport \"@openzeppelin/upgrades/contracts/Initializable.sol\";\nimport \"@openzeppelin/contracts-ethereum-package/contracts/ownership/Ownable.sol\";\nimport \"@openzeppelin/contracts-ethereum-package/contracts/token/ERC20/IERC20.sol\";\nimport \"@openzeppelin/contracts-ethereum-package/contracts/token/ERC20/SafeERC20.sol\";\nimport \"@openzeppelin/contracts-ethereum-package/contracts/crowdsale/validation/TimedCrowdsale.sol\";\nimport \"@openzeppelin/contracts-ethereum-package/contracts/crowdsale/validation/IndividuallyCappedCrowdsale.sol\";\nimport \"@openzeppelin/contracts-ethereum-package/contracts/token/ERC777/IERC777.sol\";\nimport \"@openzeppelin/contracts-ethereum-package/contracts/token/ERC777/IERC777Recipient.sol\";\nimport \"@openzeppelin/contracts-ethereum-package/contracts/introspection/IERC1820Registry.sol\";\nimport \"./ILockableToken.sol\";\n\n// solhint-disable-next-line max-line-length\ncontract InnouTokensPreSale is Initializable, Ownable, TimedCrowdsale, IndividuallyCappedCrowdsale {\n    using SafeMath for uint256;\n\n    // 100% of tokens distribute as follows:\n    uint256 constant private INVESTOR_TOKENS_PCT = 75;\n    uint256 constant private TEAM_TOKENS_PCT = 10;\n    uint256 constant private BOUNTY_TOKENS_PCT = 6;\n    uint256 constant private REWARDS_TOKENS_PCT = 9;\n\n    // Mim amount for discounted \"big\" and \"middle\" purchases\n    uint256 constant private BIG_PURCHASE_LIMIT = 250 ether;\n    uint256 constant private MID_PURCHASE_LIMIT = 50 ether;\n\n    IERC1820Registry constant private _erc1820 = IERC1820Registry(0x1820a4B7618BdE71Dce8cdc73aAB6C95905faD24);\n    bytes32 constant private TOKENS_RECIPIENT_INTERFACE_HASH = keccak256(\"ERC777TokensRecipient\");\n\n    uint256 private _cap;\n    uint256 private _bigRate;\n    uint256 private _midRate;\n\n    uint256 private _minContribution;\n    address private _teamWallet;\n    address private _bountyWallet;\n    address private _rewardsWallet;\n\n    uint256 private _weiRaisedOffchain;\n    uint256 private _purchasedTokens;\n    uint256 private _issuerTokenBase;\n\n    /**\n     * Event for receiving tokens by this contract (for the sale).\n     * @param tokenAmount Number of tokens received (for the sale)\n     * @param userData Optional data (refer to ERC-777)\n     */\n    event TokensReceived(uint256 tokenAmount, bytes userData);\n\n    /**\n     * Event for burning (unsold) tokens by this contract.\n     * @param tokenAmount Number of tokens burnt\n     * @param userData Optional data (refer to ERC-777)\n     */\n    event TokensBurned(uint256 tokenAmount, bytes userData);\n\n    /**\n     * Event for issuing tokens to the Issuer.\n     * @param teamTokens amount of tokens issued to founders and the team\n     * @param bountyTokens amount of tokens issued to the bounty & marketing pool\n     * @param rewardTokens amount of tokens issued to the user rewards & reserves pool\n     */\n    event TokensToIssuer(\n        uint256 teamTokens,\n        uint256 bountyTokens,\n        uint256 rewardTokens\n    );\n\n    /**\n     * Event for applying a special rate.\n     * @param beneficiary Address of the beneficiary\n     * @param rate Special rate applied\n     */\n    event SpecialRate(address indexed beneficiary, uint256 rate);\n\n    /**\n     * Event for setting a cap for a beneficiary.\n     * @param beneficiary Address of the beneficiary\n     * @param cap Max amount of contribution in wei(s)\n     */\n    event CapSet(address indexed beneficiary, uint256 cap);\n\n    /**\n     * @dev Analog to Constructor (for \"upgradable proxy\" pattern).\n     * @param owner Address that can run special functions (such as \"issue tokens settled off-chain\")\n     * @dev rate The rate for a \"small\" purchase\n     * Note: it is the conversion between wei and the smallest and indivisible\n     * token unit. So, if you are using a rate of 100 millions for a token\n     * that has 18 decimals, 1 wei will give you 100 million units,\n     * or 1/(1e+10) of the token.\n     * @param wallet Address where collected funds will be forwarded to\n     * @param token Address of the token being sold\n     * @param openingTime PreSale opening time\n     * @param closingTime PreSale closing time\n     * @param cap Max total amount of wei contributed\n     * @param capper Address that can set individual caps\n     * @param bigRate The discounted rate for a \"big\" purchase\n     * @param midRate The discounted rate for a \"middle\" purchase\n     * @param minContribution Minimum contribution in wei accepted\n     */\n    function initialize(\n        address owner,\n        uint256 rate,\n        address payable wallet,\n        IERC20 token,\n        uint256 openingTime,\n        uint256 closingTime,\n        uint256 cap,\n        address capper,\n        uint256 bigRate,\n        uint256 midRate,\n        uint256 minContribution\n    ) public initializer\n    {\n        require(owner != address(0), \"invalid owner address\");\n        require(cap > 0, \"cap is 0\");\n        require(bigRate > 0, \"bigRate is 0\");\n        require(midRate > 0, \"midRate is 0\");\n        require(minContribution > 0, \"minContribution is 0\");\n        require(capper != address(0), \"invalid capper address\");\n\n        ReentrancyGuard.initialize();\n        Ownable.initialize(owner);\n        // rate, wallet and tokens get checked (for non-zero values)\n        Crowdsale.initialize(rate, wallet, token);\n        // openingTime and closingTime get checked (against block.timestamp)\n        TimedCrowdsale.initialize(openingTime, closingTime);\n        IndividuallyCappedCrowdsale.initialize(capper);\n\n        _cap = cap;\n        _bigRate = bigRate;\n        _midRate = midRate;\n        _minContribution = minContribution;\n\n        _erc1820.setInterfaceImplementer(address(this), TOKENS_RECIPIENT_INTERFACE_HASH, address(this));\n    }\n\n    /**\n     * @dev Processes a purchase settled off-chain (and issues tokens to the beneficiary).\n     * Only owner may call it.\n     * @param beneficiary Recipient of the token purchase\n     * @param weiAmount Value settled off-chain\n     * @param specialRate Optional special rate\n     */\n    function boughtTokensOffchain(\n        address beneficiary,\n        uint256 weiAmount,\n        uint256 specialRate\n    ) external nonReentrant onlyOwner {\n        _preValidatePurchase(beneficiary, weiAmount);\n\n        // calculate token amount\n        uint256 tokens;\n        if(specialRate > 0) {\n            tokens = weiAmount.mul(specialRate);\n        } else {\n            tokens = _getTokenAmount(weiAmount);\n        }\n\n        // update state\n        _weiRaisedOffchain = _weiRaisedOffchain.add(weiAmount);\n\n        _processPurchase(beneficiary, tokens);\n        emit TokensPurchased(_msgSender(), beneficiary, weiAmount, tokens);\n\n        _updatePurchasingState(beneficiary, weiAmount);\n\n        _postValidatePurchase(beneficiary, weiAmount);\n    }\n\n    /**\n     * @dev Issues tokens to the team, bounty and rewards pools.\n     * Only owner may call it.\n     */\n    function issueTokensToIssuer() external nonReentrant onlyOwner {\n        require(_purchasedTokens > _issuerTokenBase, \"no new tokens to Issuer allowed\");\n        require(_teamWallet != address(0), \"team wallet undefined\");\n        require(_bountyWallet != address(0), \"bounty wallet undefined\");\n        require(_rewardsWallet != address(0), \"rewards wallet undefined\");\n\n        // calculate tokens to issue (reminder is ignored)\n        uint256 unusedBase = _purchasedTokens.sub(_issuerTokenBase);\n        uint256 teamTokensAmount = unusedBase.mul(TEAM_TOKENS_PCT).div(INVESTOR_TOKENS_PCT);\n        uint256 bountyTokensAmount = unusedBase.mul(BOUNTY_TOKENS_PCT).div(INVESTOR_TOKENS_PCT);\n        uint256 rewardsTokensAmount = unusedBase.mul(REWARDS_TOKENS_PCT).div(INVESTOR_TOKENS_PCT);\n\n        // update state\n        _issuerTokenBase = _purchasedTokens;\n\n        // issue\n        _issueTokensToIssuer(teamTokensAmount, bountyTokensAmount, rewardsTokensAmount);\n    }\n\n    /**\n     * @dev Burn tokens held by this contract (which remain unsold).\n     * Only owner may call it.\n     * @param tokenAmount Number of tokens to burn\n     * @param data Optional data (refer to ERC-777)\n     */\n    function burn(uint256 tokenAmount, bytes calldata data) external nonReentrant onlyOwner {\n        address token = address(token());\n        bytes memory payload = abi.encodeWithSelector(IERC777(token).burn.selector, tokenAmount, data);\n\n        // solhint-disable-next-line avoid-low-level-calls\n        (bool success, ) = token.call(payload);\n        require(success, \"ERC777 burn failed\");\n\n        emit TokensBurned(tokenAmount, data);\n    }\n\n    /**\n     * @dev Extend the PreSale.\n     * @param newClosingTime PreSale closing time\n     */\n    function extendTime(uint256 newClosingTime) public onlyOwner {\n        _extendTime(newClosingTime);\n    }\n\n    /**\n     * @dev ERC777 Recipient implementation.\n     * Required to accept tokens minted/sent to this contract (for further sale).\n     * Expected to be called by the token contract.\n     */\n    function tokensReceived(\n        address,\n        address from,\n        address,\n        uint256 amount,\n        bytes calldata userData,\n        bytes calldata\n    ) external {\n        require(msg.sender == address(token()), \"ERC777Recipient: invalid token\");\n        // When minted tokens get sent from the address 0\n        require(from == address(0), \"ERC777Recipient: invalid from address\");\n        emit TokensReceived(amount, userData);\n    }\n\n    /**\n     * @dev Set once the address where tokens for the founders & team are issued to.\n     * @param teamWallet (Optional) address for the team & founders' tokens\n     */\n    function setTeamWallet(address teamWallet) public onlyOwner {\n        require(_teamWallet == address(0), \"team wallet already set\");\n        require(teamWallet != address(0), \"invalid team wallet\");\n\n        _teamWallet = teamWallet;\n    }\n\n    /**\n     * @dev Set once the address where tokens for the bounty & marketing pool are issued to.\n     * @param bountyWallet (Optional) address for bounty & marketing pool tokens\n     */\n    function setBountyWallet(address bountyWallet) public onlyOwner {\n        require(_bountyWallet == address(0), \"bounty wallet already set\");\n        require(bountyWallet != address(0), \"invalid bounty wallet\");\n\n        _bountyWallet = bountyWallet;\n    }\n\n    /**\n     * @dev Set once the address where tokens for the user rewards pool are issued to.\n     * @param rewardsWallet (Optional) address for user rewards & reserves pool tokens\n     */\n    function setRewardsWallet(address rewardsWallet) public onlyOwner {\n        require(_rewardsWallet == address(0), \"reward wallet already set\");\n        require(rewardsWallet != address(0), \"invalid rewards wallet\");\n\n        _rewardsWallet = rewardsWallet;\n    }\n\n    /**\n     * @dev Returns the rate of tokens per wei.\n     * @param weiAmount The consideration being rated\n     * @return The number of tokens a buyer gets per wei\n     */\n    function getRate(uint256 weiAmount) public view returns (uint256 r) {\n        if (!isOpen()) {\n            return 0;\n        }\n        if (weiAmount >= BIG_PURCHASE_LIMIT) {\n            r = _bigRate;\n        } else if (weiAmount >= MID_PURCHASE_LIMIT) {\n            r = _midRate;\n        } else {\n            r = rate();\n        }\n    }\n\n    /**\n     * @return the cap of the PreSale (in wei)\n     */\n    function cap() public view returns (uint256) {\n        return _cap;\n    }\n\n    /**\n     * @dev Checks whether the cap has been reached.\n     * @return Whether the cap was reached\n     */\n    function capReached() public view returns (bool) {\n        return weiRaised().add(_weiRaisedOffchain) >= _cap;\n    }\n\n    /**\n     * @return the amount of wei raised which settled off-chain\n     */\n    function weiRaisedOffchain() public view returns (uint256) {\n        return _weiRaisedOffchain;\n    }\n\n    /**\n     * @return the Min contribution accepted (in wei)\n     */\n    function minContribution() public view returns (uint256) {\n        return _minContribution;\n    }\n\n    /**\n     * @return the address where tokens for the founders & team are issued to\n     */\n    function teamWallet() public view returns (address) {\n        return _teamWallet;\n    }\n\n    /**\n     * @return the address where tokens for the bounty & marketing pool are issued to\n     */\n    function bountyWallet() public view returns (address) {\n        return _bountyWallet;\n    }\n\n    /**\n     * @return the address where tokens for the user rewards and reserves pool are issued to\n     */\n    function rewardsWallet() public view returns (address) {\n        return _rewardsWallet;\n    }\n\n    /**\n     * @return the amount of tokens purchased for consideration paid\n     */\n    function purchasedTokens() public view returns (uint256) {\n        return _purchasedTokens;\n    }\n\n    /**\n     * @return the number of purchased tokens which already was accounted in\n     * calculation of tokens for the Issuer.\n     */\n    function issuerTokenBase() public view returns (uint256) {\n        return _issuerTokenBase;\n    }\n\n    /**\n     * @dev Overrides parent method taking into account variable rate.\n     * @param weiAmount The value in wei to be converted into tokens\n     * @return The number of tokens the weiAmount will buy\n     */\n    function _getTokenAmount(uint256 weiAmount) internal view returns (uint256) {\n        uint256 currentRate = getRate(weiAmount);\n        return currentRate.mul(weiAmount);\n    }\n\n    /**\n     * @dev Extend parent behavior respecting the Min contribution.\n     * @param beneficiary Token purchaser\n     * @param weiAmount Amount of wei contributed\n     */\n    function _preValidatePurchase(address beneficiary, uint256 weiAmount) internal view {\n        super._preValidatePurchase(beneficiary, weiAmount);\n        require(weiAmount >= _minContribution, \"too small contribution\");\n        require(weiRaised().add(_weiRaisedOffchain).add(weiAmount) <= _cap, \"cap exceeded\");\n    }\n\n    /**\n     * @dev Extend parent behavior locking the tokens just bought and\n     * updating the amount of tokens purchased.\n     * @param beneficiary Address receiving the tokens\n     * @param tokenAmount Number of tokens to be purchased\n     */\n    function _processPurchase(address beneficiary, uint256 tokenAmount) internal {\n        super._processPurchase(beneficiary, tokenAmount);\n        _lockTokens(beneficiary, tokenAmount);\n        _purchasedTokens = _purchasedTokens.add(tokenAmount);\n    }\n\n    function _issueTokensToIssuer(\n        uint256 teamTokensAmount,\n        uint256 bountyTokensAmount,\n        uint256 rewardsTokensAmount\n    ) internal {\n        _deliverTokens(_teamWallet, teamTokensAmount);\n        _deliverTokens(_bountyWallet, bountyTokensAmount);\n        _deliverTokens(_rewardsWallet, rewardsTokensAmount);\n        emit TokensToIssuer(teamTokensAmount, bountyTokensAmount, rewardsTokensAmount);\n    }\n\n    function _lockTokens(address beneficiary, uint256 tokenAmount) private {\n        ILockableToken token = ILockableToken(address(token()));\n        require(token.lockIn(beneficiary, tokenAmount), \"Tokens locking failed\");\n    }\n}\n",
  "sourcePath": "contracts/InnouTokensPreSale.sol",
  "abi": [
    {
      "anonymous": false,
      "inputs": [
        {
          "indexed": true,
          "internalType": "address",
          "name": "beneficiary",
          "type": "address"
        },
        {
          "indexed": false,
          "internalType": "uint256",
          "name": "cap",
          "type": "uint256"
        }
      ],
      "name": "CapSet",
      "type": "event"
    },
    {
      "anonymous": false,
      "inputs": [
        {
          "indexed": true,
          "internalType": "address",
          "name": "account",
          "type": "address"
        }
      ],
      "name": "CapperAdded",
      "type": "event"
    },
    {
      "anonymous": false,
      "inputs": [
        {
          "indexed": true,
          "internalType": "address",
          "name": "account",
          "type": "address"
        }
      ],
      "name": "CapperRemoved",
      "type": "event"
    },
    {
      "anonymous": false,
      "inputs": [
        {
          "indexed": true,
          "internalType": "address",
          "name": "previousOwner",
          "type": "address"
        },
        {
          "indexed": true,
          "internalType": "address",
          "name": "newOwner",
          "type": "address"
        }
      ],
      "name": "OwnershipTransferred",
      "type": "event"
    },
    {
      "anonymous": false,
      "inputs": [
        {
          "indexed": true,
          "internalType": "address",
          "name": "beneficiary",
          "type": "address"
        },
        {
          "indexed": false,
          "internalType": "uint256",
          "name": "rate",
          "type": "uint256"
        }
      ],
      "name": "SpecialRate",
      "type": "event"
    },
    {
      "anonymous": false,
      "inputs": [
        {
          "indexed": false,
          "internalType": "uint256",
          "name": "prevClosingTime",
          "type": "uint256"
        },
        {
          "indexed": false,
          "internalType": "uint256",
          "name": "newClosingTime",
          "type": "uint256"
        }
      ],
      "name": "TimedCrowdsaleExtended",
      "type": "event"
    },
    {
      "anonymous": false,
      "inputs": [
        {
          "indexed": false,
          "internalType": "uint256",
          "name": "tokenAmount",
          "type": "uint256"
        },
        {
          "indexed": false,
          "internalType": "bytes",
          "name": "userData",
          "type": "bytes"
        }
      ],
      "name": "TokensBurned",
      "type": "event"
    },
    {
      "anonymous": false,
      "inputs": [
        {
          "indexed": true,
          "internalType": "address",
          "name": "purchaser",
          "type": "address"
        },
        {
          "indexed": true,
          "internalType": "address",
          "name": "beneficiary",
          "type": "address"
        },
        {
          "indexed": false,
          "internalType": "uint256",
          "name": "value",
          "type": "uint256"
        },
        {
          "indexed": false,
          "internalType": "uint256",
          "name": "amount",
          "type": "uint256"
        }
      ],
      "name": "TokensPurchased",
      "type": "event"
    },
    {
      "anonymous": false,
      "inputs": [
        {
          "indexed": false,
          "internalType": "uint256",
          "name": "tokenAmount",
          "type": "uint256"
        },
        {
          "indexed": false,
          "internalType": "bytes",
          "name": "userData",
          "type": "bytes"
        }
      ],
      "name": "TokensReceived",
      "type": "event"
    },
    {
      "anonymous": false,
      "inputs": [
        {
          "indexed": false,
          "internalType": "uint256",
          "name": "teamTokens",
          "type": "uint256"
        },
        {
          "indexed": false,
          "internalType": "uint256",
          "name": "bountyTokens",
          "type": "uint256"
        },
        {
          "indexed": false,
          "internalType": "uint256",
          "name": "rewardTokens",
          "type": "uint256"
        }
      ],
      "name": "TokensToIssuer",
      "type": "event"
    },
    {
      "payable": true,
      "stateMutability": "payable",
      "type": "fallback"
    },
    {
      "constant": false,
      "inputs": [
        {
          "internalType": "address",
          "name": "account",
          "type": "address"
        }
      ],
      "name": "addCapper",
      "outputs": [],
      "payable": false,
      "stateMutability": "nonpayable",
      "type": "function"
    },
    {
      "constant": false,
      "inputs": [
        {
          "internalType": "address",
          "name": "beneficiary",
          "type": "address"
        },
        {
          "internalType": "uint256",
          "name": "weiAmount",
          "type": "uint256"
        },
        {
          "internalType": "uint256",
          "name": "specialRate",
          "type": "uint256"
        }
      ],
      "name": "boughtTokensOffchain",
      "outputs": [],
      "payable": false,
      "stateMutability": "nonpayable",
      "type": "function"
    },
    {
      "constant": true,
      "inputs": [],
      "name": "bountyWallet",
      "outputs": [
        {
          "internalType": "address",
          "name": "",
          "type": "address"
        }
      ],
      "payable": false,
      "stateMutability": "view",
      "type": "function"
    },
    {
      "constant": false,
      "inputs": [
        {
          "internalType": "uint256",
          "name": "tokenAmount",
          "type": "uint256"
        },
        {
          "internalType": "bytes",
          "name": "data",
          "type": "bytes"
        }
      ],
      "name": "burn",
      "outputs": [],
      "payable": false,
      "stateMutability": "nonpayable",
      "type": "function"
    },
    {
      "constant": false,
      "inputs": [
        {
          "internalType": "address",
          "name": "beneficiary",
          "type": "address"
        }
      ],
      "name": "buyTokens",
      "outputs": [],
      "payable": true,
      "stateMutability": "payable",
      "type": "function"
    },
    {
      "constant": true,
      "inputs": [],
      "name": "cap",
      "outputs": [
        {
          "internalType": "uint256",
          "name": "",
          "type": "uint256"
        }
      ],
      "payable": false,
      "stateMutability": "view",
      "type": "function"
    },
    {
      "constant": true,
      "inputs": [],
      "name": "capReached",
      "outputs": [
        {
          "internalType": "bool",
          "name": "",
          "type": "bool"
        }
      ],
      "payable": false,
      "stateMutability": "view",
      "type": "function"
    },
    {
      "constant": true,
      "inputs": [],
      "name": "closingTime",
      "outputs": [
        {
          "internalType": "uint256",
          "name": "",
          "type": "uint256"
        }
      ],
      "payable": false,
      "stateMutability": "view",
      "type": "function"
    },
    {
      "constant": false,
      "inputs": [
        {
          "internalType": "uint256",
          "name": "newClosingTime",
          "type": "uint256"
        }
      ],
      "name": "extendTime",
      "outputs": [],
      "payable": false,
      "stateMutability": "nonpayable",
      "type": "function"
    },
    {
      "constant": true,
      "inputs": [
        {
          "internalType": "address",
          "name": "beneficiary",
          "type": "address"
        }
      ],
      "name": "getCap",
      "outputs": [
        {
          "internalType": "uint256",
          "name": "",
          "type": "uint256"
        }
      ],
      "payable": false,
      "stateMutability": "view",
      "type": "function"
    },
    {
      "constant": true,
      "inputs": [
        {
          "internalType": "address",
          "name": "beneficiary",
          "type": "address"
        }
      ],
      "name": "getContribution",
      "outputs": [
        {
          "internalType": "uint256",
          "name": "",
          "type": "uint256"
        }
      ],
      "payable": false,
      "stateMutability": "view",
      "type": "function"
    },
    {
      "constant": true,
      "inputs": [
        {
          "internalType": "uint256",
          "name": "weiAmount",
          "type": "uint256"
        }
      ],
      "name": "getRate",
      "outputs": [
        {
          "internalType": "uint256",
          "name": "r",
          "type": "uint256"
        }
      ],
      "payable": false,
      "stateMutability": "view",
      "type": "function"
    },
    {
      "constant": true,
      "inputs": [],
      "name": "hasClosed",
      "outputs": [
        {
          "internalType": "bool",
          "name": "",
          "type": "bool"
        }
      ],
      "payable": false,
      "stateMutability": "view",
      "type": "function"
    },
    {
      "constant": false,
      "inputs": [
        {
          "internalType": "address",
          "name": "owner",
          "type": "address"
        },
        {
          "internalType": "uint256",
          "name": "rate",
          "type": "uint256"
        },
        {
          "internalType": "address payable",
          "name": "wallet",
          "type": "address"
        },
        {
          "internalType": "contract IERC20",
          "name": "token",
          "type": "address"
        },
        {
          "internalType": "uint256",
          "name": "openingTime",
          "type": "uint256"
        },
        {
          "internalType": "uint256",
          "name": "closingTime",
          "type": "uint256"
        },
        {
          "internalType": "uint256",
          "name": "cap",
          "type": "uint256"
        },
        {
          "internalType": "address",
          "name": "capper",
          "type": "address"
        },
        {
          "internalType": "uint256",
          "name": "bigRate",
          "type": "uint256"
        },
        {
          "internalType": "uint256",
          "name": "midRate",
          "type": "uint256"
        },
        {
          "internalType": "uint256",
          "name": "minContribution",
          "type": "uint256"
        }
      ],
      "name": "initialize",
      "outputs": [],
      "payable": false,
      "stateMutability": "nonpayable",
      "type": "function"
    },
    {
      "constant": false,
      "inputs": [],
      "name": "initialize",
      "outputs": [],
      "payable": false,
      "stateMutability": "nonpayable",
      "type": "function"
    },
    {
      "constant": false,
      "inputs": [
        {
          "internalType": "uint256",
          "name": "rate",
          "type": "uint256"
        },
        {
          "internalType": "address payable",
          "name": "wallet",
          "type": "address"
        },
        {
          "internalType": "contract IERC20",
          "name": "token",
          "type": "address"
        }
      ],
      "name": "initialize",
      "outputs": [],
      "payable": false,
      "stateMutability": "nonpayable",
      "type": "function"
    },
    {
      "constant": false,
      "inputs": [
        {
          "internalType": "address",
          "name": "sender",
          "type": "address"
        }
      ],
      "name": "initialize",
      "outputs": [],
      "payable": false,
      "stateMutability": "nonpayable",
      "type": "function"
    },
    {
      "constant": false,
      "inputs": [
        {
          "internalType": "uint256",
          "name": "openingTime",
          "type": "uint256"
        },
        {
          "internalType": "uint256",
          "name": "closingTime",
          "type": "uint256"
        }
      ],
      "name": "initialize",
      "outputs": [],
      "payable": false,
      "stateMutability": "nonpayable",
      "type": "function"
    },
    {
      "constant": true,
      "inputs": [
        {
          "internalType": "address",
          "name": "account",
          "type": "address"
        }
      ],
      "name": "isCapper",
      "outputs": [
        {
          "internalType": "bool",
          "name": "",
          "type": "bool"
        }
      ],
      "payable": false,
      "stateMutability": "view",
      "type": "function"
    },
    {
      "constant": true,
      "inputs": [],
      "name": "isOpen",
      "outputs": [
        {
          "internalType": "bool",
          "name": "",
          "type": "bool"
        }
      ],
      "payable": false,
      "stateMutability": "view",
      "type": "function"
    },
    {
      "constant": true,
      "inputs": [],
      "name": "isOwner",
      "outputs": [
        {
          "internalType": "bool",
          "name": "",
          "type": "bool"
        }
      ],
      "payable": false,
      "stateMutability": "view",
      "type": "function"
    },
    {
      "constant": false,
      "inputs": [],
      "name": "issueTokensToIssuer",
      "outputs": [],
      "payable": false,
      "stateMutability": "nonpayable",
      "type": "function"
    },
    {
      "constant": true,
      "inputs": [],
      "name": "issuerTokenBase",
      "outputs": [
        {
          "internalType": "uint256",
          "name": "",
          "type": "uint256"
        }
      ],
      "payable": false,
      "stateMutability": "view",
      "type": "function"
    },
    {
      "constant": true,
      "inputs": [],
      "name": "minContribution",
      "outputs": [
        {
          "internalType": "uint256",
          "name": "",
          "type": "uint256"
        }
      ],
      "payable": false,
      "stateMutability": "view",
      "type": "function"
    },
    {
      "constant": true,
      "inputs": [],
      "name": "openingTime",
      "outputs": [
        {
          "internalType": "uint256",
          "name": "",
          "type": "uint256"
        }
      ],
      "payable": false,
      "stateMutability": "view",
      "type": "function"
    },
    {
      "constant": true,
      "inputs": [],
      "name": "owner",
      "outputs": [
        {
          "internalType": "address",
          "name": "",
          "type": "address"
        }
      ],
      "payable": false,
      "stateMutability": "view",
      "type": "function"
    },
    {
      "constant": true,
      "inputs": [],
      "name": "purchasedTokens",
      "outputs": [
        {
          "internalType": "uint256",
          "name": "",
          "type": "uint256"
        }
      ],
      "payable": false,
      "stateMutability": "view",
      "type": "function"
    },
    {
      "constant": true,
      "inputs": [],
      "name": "rate",
      "outputs": [
        {
          "internalType": "uint256",
          "name": "",
          "type": "uint256"
        }
      ],
      "payable": false,
      "stateMutability": "view",
      "type": "function"
    },
    {
      "constant": false,
      "inputs": [],
      "name": "renounceCapper",
      "outputs": [],
      "payable": false,
      "stateMutability": "nonpayable",
      "type": "function"
    },
    {
      "constant": false,
      "inputs": [],
      "name": "renounceOwnership",
      "outputs": [],
      "payable": false,
      "stateMutability": "nonpayable",
      "type": "function"
    },
    {
      "constant": true,
      "inputs": [],
      "name": "rewardsWallet",
      "outputs": [
        {
          "internalType": "address",
          "name": "",
          "type": "address"
        }
      ],
      "payable": false,
      "stateMutability": "view",
      "type": "function"
    },
    {
      "constant": false,
      "inputs": [
        {
          "internalType": "address",
          "name": "bountyWallet",
          "type": "address"
        }
      ],
      "name": "setBountyWallet",
      "outputs": [],
      "payable": false,
      "stateMutability": "nonpayable",
      "type": "function"
    },
    {
      "constant": false,
      "inputs": [
        {
          "internalType": "address",
          "name": "beneficiary",
          "type": "address"
        },
        {
          "internalType": "uint256",
          "name": "cap",
          "type": "uint256"
        }
      ],
      "name": "setCap",
      "outputs": [],
      "payable": false,
      "stateMutability": "nonpayable",
      "type": "function"
    },
    {
      "constant": false,
      "inputs": [
        {
          "internalType": "address",
          "name": "rewardsWallet",
          "type": "address"
        }
      ],
      "name": "setRewardsWallet",
      "outputs": [],
      "payable": false,
      "stateMutability": "nonpayable",
      "type": "function"
    },
    {
      "constant": false,
      "inputs": [
        {
          "internalType": "address",
          "name": "teamWallet",
          "type": "address"
        }
      ],
      "name": "setTeamWallet",
      "outputs": [],
      "payable": false,
      "stateMutability": "nonpayable",
      "type": "function"
    },
    {
      "constant": true,
      "inputs": [],
      "name": "teamWallet",
      "outputs": [
        {
          "internalType": "address",
          "name": "",
          "type": "address"
        }
      ],
      "payable": false,
      "stateMutability": "view",
      "type": "function"
    },
    {
      "constant": true,
      "inputs": [],
      "name": "token",
      "outputs": [
        {
          "internalType": "contract IERC20",
          "name": "",
          "type": "address"
        }
      ],
      "payable": false,
      "stateMutability": "view",
      "type": "function"
    },
    {
      "constant": false,
      "inputs": [
        {
          "internalType": "address",
          "name": "",
          "type": "address"
        },
        {
          "internalType": "address",
          "name": "from",
          "type": "address"
        },
        {
          "internalType": "address",
          "name": "",
          "type": "address"
        },
        {
          "internalType": "uint256",
          "name": "amount",
          "type": "uint256"
        },
        {
          "internalType": "bytes",
          "name": "userData",
          "type": "bytes"
        },
        {
          "internalType": "bytes",
          "name": "",
          "type": "bytes"
        }
      ],
      "name": "tokensReceived",
      "outputs": [],
      "payable": false,
      "stateMutability": "nonpayable",
      "type": "function"
    },
    {
      "constant": false,
      "inputs": [
        {
          "internalType": "address",
          "name": "newOwner",
          "type": "address"
        }
      ],
      "name": "transferOwnership",
      "outputs": [],
      "payable": false,
      "stateMutability": "nonpayable",
      "type": "function"
    },
    {
      "constant": true,
      "inputs": [],
      "name": "wallet",
      "outputs": [
        {
          "internalType": "address payable",
          "name": "",
          "type": "address"
        }
      ],
      "payable": false,
      "stateMutability": "view",
      "type": "function"
    },
    {
      "constant": true,
      "inputs": [],
      "name": "weiRaised",
      "outputs": [
        {
          "internalType": "uint256",
          "name": "",
          "type": "uint256"
        }
      ],
      "payable": false,
      "stateMutability": "view",
      "type": "function"
    },
    {
      "constant": true,
      "inputs": [],
      "name": "weiRaisedOffchain",
      "outputs": [
        {
          "internalType": "uint256",
          "name": "",
          "type": "uint256"
        }
      ],
      "payable": false,
      "stateMutability": "view",
      "type": "function"
    }
  ],
  "bytecode": "0x6080604052615013806100136000396000f3fe6080604052600436106102505760003560e01c806380ad2cf311610139578063b3aefb75116100b6578063e4a301161161007a578063e4a3011614610d23578063e576052014610d68578063ec8ac4d814610dbf578063f2fde38b14610e03578063fc0c546a14610e54578063fe9d930314610eab57610250565b8063b3aefb7514610b9c578063b4988fd014610c01578063b7a8807c14610c7c578063c4d66de814610ca7578063d55a432614610cf857610250565b80638f32d59b116100fd5780638f32d59b14610a8b578063a198043014610aba578063a27aebbc14610b0b578063a907af7814610b46578063aaffadf314610b7157610250565b806380ad2cf3146109205780638129fc1c1461097b5780638a9d3839146109925780638da5cb5b146109e35780638dfbcf3614610a3a57610250565b80634042b66f116101d2578063577640941161019657806357764094146106fd578063599270441461074c5780635b35f9c9146107a35780635d5576f8146107fa57806361b046c714610811578063715018a61461090957610250565b80634042b66f146105f257806347535d7b1461061d5780634b6753bc1461064c5780634f93594514610677578063521eb273146106a657610250565b80632c4e722e116102195780632c4e722e146104b7578063355274ea146104e25780633712ba781461050d57806338ce0c8214610572578063395645611461058957610250565b806223de291461026257806305971912146103a75780631515bc2b146103d25780631525ff7d1461040157806321eff7fc14610452575b61026061025b610f3b565b610f43565b005b34801561026e57600080fd5b506103a5600480360360c081101561028557600080fd5b81019080803573ffffffffffffffffffffffffffffffffffffffff169060200190929190803573ffffffffffffffffffffffffffffffffffffffff169060200190929190803573ffffffffffffffffffffffffffffffffffffffff169060200190929190803590602001909291908035906020019064010000000081111561030c57600080fd5b82018360208201111561031e57600080fd5b8035906020019184600183028401116401000000008311171561034057600080fd5b90919293919293908035906020019064010000000081111561036157600080fd5b82018360208201111561037357600080fd5b8035906020019184600183028401116401000000008311171561039557600080fd5b90919293919293905050506110a9565b005b3480156103b357600080fd5b506103bc61124b565b6040518082815260200191505060405180910390f35b3480156103de57600080fd5b506103e7611256565b604051808215151515815260200191505060405180910390f35b34801561040d57600080fd5b506104506004803603602081101561042457600080fd5b81019080803573ffffffffffffffffffffffffffffffffffffffff169060200190929190505050611262565b005b34801561045e57600080fd5b506104a16004803603602081101561047557600080fd5b81019080803573ffffffffffffffffffffffffffffffffffffffff169060200190929190505050611489565b6040518082815260200191505060405180910390f35b3480156104c357600080fd5b506104cc6114d3565b6040518082815260200191505060405180910390f35b3480156104ee57600080fd5b506104f76114dd565b6040518082815260200191505060405180910390f35b34801561051957600080fd5b506105706004803603606081101561053057600080fd5b81019080803573ffffffffffffffffffffffffffffffffffffffff16906020019092919080359060200190929190803590602001909291905050506114e8565b005b34801561057e57600080fd5b506105876116e1565b005b34801561059557600080fd5b506105d8600480360360208110156105ac57600080fd5b81019080803573ffffffffffffffffffffffffffffffffffffffff169060200190929190505050611b72565b604051808215151515815260200191505060405180910390f35b3480156105fe57600080fd5b50610607611b90565b6040518082815260200191505060405180910390f35b34801561062957600080fd5b50610632611b9a565b604051808215151515815260200191505060405180910390f35b34801561065857600080fd5b50610661611bb5565b6040518082815260200191505060405180910390f35b34801561068357600080fd5b5061068c611bbf565b604051808215151515815260200191505060405180910390f35b3480156106b257600080fd5b506106bb611be9565b604051808273ffffffffffffffffffffffffffffffffffffffff1673ffffffffffffffffffffffffffffffffffffffff16815260200191505060405180910390f35b34801561070957600080fd5b506107366004803603602081101561072057600080fd5b8101908080359060200190929190505050611c13565b6040518082815260200191505060405180910390f35b34801561075857600080fd5b50610761611c72565b604051808273ffffffffffffffffffffffffffffffffffffffff1673ffffffffffffffffffffffffffffffffffffffff16815260200191505060405180910390f35b3480156107af57600080fd5b506107b8611c9d565b604051808273ffffffffffffffffffffffffffffffffffffffff1673ffffffffffffffffffffffffffffffffffffffff16815260200191505060405180910390f35b34801561080657600080fd5b5061080f611cc8565b005b34801561081d57600080fd5b50610907600480360361016081101561083557600080fd5b81019080803573ffffffffffffffffffffffffffffffffffffffff16906020019092919080359060200190929190803573ffffffffffffffffffffffffffffffffffffffff169060200190929190803573ffffffffffffffffffffffffffffffffffffffff169060200190929190803590602001909291908035906020019092919080359060200190929190803573ffffffffffffffffffffffffffffffffffffffff169060200190929190803590602001909291908035906020019092919080359060200190929190505050611cda565b005b34801561091557600080fd5b5061091e61226d565b005b34801561092c57600080fd5b506109796004803603604081101561094357600080fd5b81019080803573ffffffffffffffffffffffffffffffffffffffff169060200190929190803590602001909291905050506123a8565b005b34801561098757600080fd5b50610990612456565b005b34801561099e57600080fd5b506109e1600480360360208110156109b557600080fd5b81019080803573ffffffffffffffffffffffffffffffffffffffff16906020019092919050505061255d565b005b3480156109ef57600080fd5b506109f8612784565b604051808273ffffffffffffffffffffffffffffffffffffffff1673ffffffffffffffffffffffffffffffffffffffff16815260200191505060405180910390f35b348015610a4657600080fd5b50610a8960048036036020811015610a5d57600080fd5b81019080803573ffffffffffffffffffffffffffffffffffffffff1690602001909291905050506127ae565b005b348015610a9757600080fd5b50610aa061281f565b604051808215151515815260200191505060405180910390f35b348015610ac657600080fd5b50610b0960048036036020811015610add57600080fd5b81019080803573ffffffffffffffffffffffffffffffffffffffff16906020019092919050505061287e565b005b348015610b1757600080fd5b50610b4460048036036020811015610b2e57600080fd5b8101908080359060200190929190505050612aa5565b005b348015610b5257600080fd5b50610b5b612b2b565b6040518082815260200191505060405180910390f35b348015610b7d57600080fd5b50610b86612b36565b6040518082815260200191505060405180910390f35b348015610ba857600080fd5b50610beb60048036036020811015610bbf57600080fd5b81019080803573ffffffffffffffffffffffffffffffffffffffff169060200190929190505050612b41565b6040518082815260200191505060405180910390f35b348015610c0d57600080fd5b50610c7a60048036036060811015610c2457600080fd5b8101908080359060200190929190803573ffffffffffffffffffffffffffffffffffffffff169060200190929190803573ffffffffffffffffffffffffffffffffffffffff169060200190929190505050612b8b565b005b348015610c8857600080fd5b50610c91612e98565b6040518082815260200191505060405180910390f35b348015610cb357600080fd5b50610cf660048036036020811015610cca57600080fd5b81019080803573ffffffffffffffffffffffffffffffffffffffff169060200190929190505050612ea2565b005b348015610d0457600080fd5b50610d0d612fb9565b6040518082815260200191505060405180910390f35b348015610d2f57600080fd5b50610d6660048036036040811015610d4657600080fd5b810190808035906020019092919080359060200190929190505050612fc4565b005b348015610d7457600080fd5b50610d7d613192565b604051808273ffffffffffffffffffffffffffffffffffffffff1673ffffffffffffffffffffffffffffffffffffffff16815260200191505060405180910390f35b610e0160048036036020811015610dd557600080fd5b81019080803573ffffffffffffffffffffffffffffffffffffffff169060200190929190505050610f43565b005b348015610e0f57600080fd5b50610e5260048036036020811015610e2657600080fd5b81019080803573ffffffffffffffffffffffffffffffffffffffff1690602001909291905050506131bd565b005b348015610e6057600080fd5b50610e69613243565b604051808273ffffffffffffffffffffffffffffffffffffffff1673ffffffffffffffffffffffffffffffffffffffff16815260200191505060405180910390f35b348015610eb757600080fd5b50610f3960048036036040811015610ece57600080fd5b810190808035906020019092919080359060200190640100000000811115610ef557600080fd5b820183602082011115610f0757600080fd5b80359060200191846001830284011164010000000083111715610f2957600080fd5b909192939192939050505061326d565b005b600033905090565b6001606660008282540192505081905550600060665490506000349050610f6a83826135e8565b6000610f7582613716565b9050610f8c82609c5461373f90919063ffffffff16565b609c81905550610f9c84826137c7565b8373ffffffffffffffffffffffffffffffffffffffff16610fbb610f3b565b73ffffffffffffffffffffffffffffffffffffffff167f6faf93231a456e552dbc9961f58d9713ee4f2e69d15f1975b050ef0911053a7b8484604051808381526020018281526020019250505060405180910390a361101a84836137fc565b6110226138a1565b61102c848361390c565b505060665481146110a5576040517f08c379a000000000000000000000000000000000000000000000000000000000815260040180806020018281038252601f8152602001807f5265656e7472616e637947756172643a207265656e7472616e742063616c6c0081525060200191505060405180910390fd5b5050565b6110b1613243565b73ffffffffffffffffffffffffffffffffffffffff163373ffffffffffffffffffffffffffffffffffffffff1614611151576040517f08c379a000000000000000000000000000000000000000000000000000000000815260040180806020018281038252601e8152602001807f455243373737526563697069656e743a20696e76616c696420746f6b656e000081525060200191505060405180910390fd5b600073ffffffffffffffffffffffffffffffffffffffff168773ffffffffffffffffffffffffffffffffffffffff16146111d6576040517f08c379a0000000000000000000000000000000000000000000000000000000008152600401808060200182810382526025815260200180614dae6025913960400191505060405180910390fd5b7f7aaf2e01aab6b767f76075e0fefc4618cf6b4a3b7597d1e81b914eb66175655b85858560405180848152602001806020018281038252848482818152602001925080828437600081840152601f19601f82011690508083019250505094505050505060405180910390a15050505050505050565b600061017254905090565b600060d0544211905090565b61126a61281f565b6112dc576040517f08c379a00000000000000000000000000000000000000000000000000000000081526004018080602001828103825260208152602001807f4f776e61626c653a2063616c6c6572206973206e6f7420746865206f776e657281525060200191505060405180910390fd5b600073ffffffffffffffffffffffffffffffffffffffff1661016e60009054906101000a900473ffffffffffffffffffffffffffffffffffffffff1673ffffffffffffffffffffffffffffffffffffffff16146113a1576040517f08c379a00000000000000000000000000000000000000000000000000000000081526004018080602001828103825260178152602001807f7465616d2077616c6c657420616c72656164792073657400000000000000000081525060200191505060405180910390fd5b600073ffffffffffffffffffffffffffffffffffffffff168173ffffffffffffffffffffffffffffffffffffffff161415611444576040517f08c379a00000000000000000000000000000000000000000000000000000000081526004018080602001828103825260138152602001807f696e76616c6964207465616d2077616c6c65740000000000000000000000000081525060200191505060405180910390fd5b8061016e60006101000a81548173ffffffffffffffffffffffffffffffffffffffff021916908373ffffffffffffffffffffffffffffffffffffffff16021790555050565b600061013660008373ffffffffffffffffffffffffffffffffffffffff1673ffffffffffffffffffffffffffffffffffffffff168152602001908152602001600020549050919050565b6000609b54905090565b600061016a54905090565b60016066600082825401925050819055506000606654905061150861281f565b61157a576040517f08c379a00000000000000000000000000000000000000000000000000000000081526004018080602001828103825260208152602001807f4f776e61626c653a2063616c6c6572206973206e6f7420746865206f776e657281525060200191505060405180910390fd5b61158484846135e8565b6000808311156115a8576115a1838561391090919063ffffffff16565b90506115b4565b6115b184613716565b90505b6115ca846101715461373f90919063ffffffff16565b610171819055506115db85826137c7565b8473ffffffffffffffffffffffffffffffffffffffff166115fa610f3b565b73ffffffffffffffffffffffffffffffffffffffff167f6faf93231a456e552dbc9961f58d9713ee4f2e69d15f1975b050ef0911053a7b8684604051808381526020018281526020019250505060405180910390a361165985856137fc565b611663858561390c565b5060665481146116db576040517f08c379a000000000000000000000000000000000000000000000000000000000815260040180806020018281038252601f8152602001807f5265656e7472616e637947756172643a207265656e7472616e742063616c6c0081525060200191505060405180910390fd5b50505050565b60016066600082825401925050819055506000606654905061170161281f565b611773576040517f08c379a00000000000000000000000000000000000000000000000000000000081526004018080602001828103825260208152602001807f4f776e61626c653a2063616c6c6572206973206e6f7420746865206f776e657281525060200191505060405180910390fd5b6101735461017254116117ee576040517f08c379a000000000000000000000000000000000000000000000000000000000815260040180806020018281038252601f8152602001807f6e6f206e657720746f6b656e7320746f2049737375657220616c6c6f7765640081525060200191505060405180910390fd5b600073ffffffffffffffffffffffffffffffffffffffff1661016e60009054906101000a900473ffffffffffffffffffffffffffffffffffffffff1673ffffffffffffffffffffffffffffffffffffffff1614156118b4576040517f08c379a00000000000000000000000000000000000000000000000000000000081526004018080602001828103825260158152602001807f7465616d2077616c6c657420756e646566696e6564000000000000000000000081525060200191505060405180910390fd5b600073ffffffffffffffffffffffffffffffffffffffff1661016f60009054906101000a900473ffffffffffffffffffffffffffffffffffffffff1673ffffffffffffffffffffffffffffffffffffffff16141561197a576040517f08c379a00000000000000000000000000000000000000000000000000000000081526004018080602001828103825260178152602001807f626f756e74792077616c6c657420756e646566696e656400000000000000000081525060200191505060405180910390fd5b600073ffffffffffffffffffffffffffffffffffffffff1661017060009054906101000a900473ffffffffffffffffffffffffffffffffffffffff1673ffffffffffffffffffffffffffffffffffffffff161415611a40576040517f08c379a00000000000000000000000000000000000000000000000000000000081526004018080602001828103825260188152602001807f726577617264732077616c6c657420756e646566696e6564000000000000000081525060200191505060405180910390fd5b6000611a5b610173546101725461399690919063ffffffff16565b90506000611a86604b611a78600a8561391090919063ffffffff16565b6139e090919063ffffffff16565b90506000611ab1604b611aa360068661391090919063ffffffff16565b6139e090919063ffffffff16565b90506000611adc604b611ace60098761391090919063ffffffff16565b6139e090919063ffffffff16565b90506101725461017381905550611af4838383613a2a565b505050506066548114611b6f576040517f08c379a000000000000000000000000000000000000000000000000000000000815260040180806020018281038252601f8152602001807f5265656e7472616e637947756172643a207265656e7472616e742063616c6c0081525060200191505060405180910390fd5b50565b6000611b8982610103613afd90919063ffffffff16565b9050919050565b6000609c54905090565b600060cf544210158015611bb0575060d0544211155b905090565b600060d054905090565b600061016a54611be261017154611bd4611b90565b61373f90919063ffffffff16565b1015905090565b6000609a60009054906101000a900473ffffffffffffffffffffffffffffffffffffffff16905090565b6000611c1d611b9a565b611c2a5760009050611c6d565b680d8d726b7177a800008210611c455761016b549050611c6c565b6802b5e3af16b18800008210611c605761016c549050611c6b565b611c686114d3565b90505b5b5b919050565b600061016e60009054906101000a900473ffffffffffffffffffffffffffffffffffffffff16905090565b600061017060009054906101000a900473ffffffffffffffffffffffffffffffffffffffff16905090565b611cd8611cd3610f3b565b613bdb565b565b600060019054906101000a900460ff1680611cf95750611cf8613c36565b5b80611d1057506000809054906101000a900460ff16155b611d65576040517f08c379a000000000000000000000000000000000000000000000000000000000815260040180806020018281038252602e815260200180614ed1602e913960400191505060405180910390fd5b60008060019054906101000a900460ff161590508015611db5576001600060016101000a81548160ff02191690831515021790555060016000806101000a81548160ff0219169083151502179055505b600073ffffffffffffffffffffffffffffffffffffffff168c73ffffffffffffffffffffffffffffffffffffffff161415611e58576040517f08c379a00000000000000000000000000000000000000000000000000000000081526004018080602001828103825260158152602001807f696e76616c6964206f776e65722061646472657373000000000000000000000081525060200191505060405180910390fd5b60008611611ece576040517f08c379a00000000000000000000000000000000000000000000000000000000081526004018080602001828103825260088152602001807f636170206973203000000000000000000000000000000000000000000000000081525060200191505060405180910390fd5b60008411611f44576040517f08c379a000000000000000000000000000000000000000000000000000000000815260040180806020018281038252600c8152602001807f626967526174652069732030000000000000000000000000000000000000000081525060200191505060405180910390fd5b60008311611fba576040517f08c379a000000000000000000000000000000000000000000000000000000000815260040180806020018281038252600c8152602001807f6d6964526174652069732030000000000000000000000000000000000000000081525060200191505060405180910390fd5b60008211612030576040517f08c379a00000000000000000000000000000000000000000000000000000000081526004018080602001828103825260148152602001807f6d696e436f6e747269627574696f6e206973203000000000000000000000000081525060200191505060405180910390fd5b600073ffffffffffffffffffffffffffffffffffffffff168573ffffffffffffffffffffffffffffffffffffffff1614156120d3576040517f08c379a00000000000000000000000000000000000000000000000000000000081526004018080602001828103825260168152602001807f696e76616c69642063617070657220616464726573730000000000000000000081525060200191505060405180910390fd5b6120db612456565b6120e48c613c4d565b6120ef8b8b8b612b8b565b6120f98888612fc4565b61210285612ea2565b8561016a819055508361016b819055508261016c819055508161016d81905550731820a4b7618bde71dce8cdc73aab6c95905fad2473ffffffffffffffffffffffffffffffffffffffff166329965a1d3060405180807f455243373737546f6b656e73526563697069656e74000000000000000000000081525060150190506040518091039020306040518463ffffffff1660e01b8152600401808473ffffffffffffffffffffffffffffffffffffffff1673ffffffffffffffffffffffffffffffffffffffff1681526020018381526020018273ffffffffffffffffffffffffffffffffffffffff1673ffffffffffffffffffffffffffffffffffffffff1681526020019350505050600060405180830381600087803b15801561222657600080fd5b505af115801561223a573d6000803e3d6000fd5b50505050801561225f5760008060016101000a81548160ff0219169083151502179055505b505050505050505050505050565b61227561281f565b6122e7576040517f08c379a00000000000000000000000000000000000000000000000000000000081526004018080602001828103825260208152602001807f4f776e61626c653a2063616c6c6572206973206e6f7420746865206f776e657281525060200191505060405180910390fd5b600073ffffffffffffffffffffffffffffffffffffffff16603360009054906101000a900473ffffffffffffffffffffffffffffffffffffffff1673ffffffffffffffffffffffffffffffffffffffff167f8be0079c531659141344cd1fd0a4f28419497f9722a3daafe3b4186f6b6457e060405160405180910390a36000603360006101000a81548173ffffffffffffffffffffffffffffffffffffffff021916908373ffffffffffffffffffffffffffffffffffffffff160217905550565b6123b86123b3610f3b565b611b72565b61240d576040517f08c379a0000000000000000000000000000000000000000000000000000000008152600401808060200182810382526030815260200180614faf6030913960400191505060405180910390fd5b8061013760008473ffffffffffffffffffffffffffffffffffffffff1673ffffffffffffffffffffffffffffffffffffffff168152602001908152602001600020819055505050565b600060019054906101000a900460ff16806124755750612474613c36565b5b8061248c57506000809054906101000a900460ff16155b6124e1576040517f08c379a000000000000000000000000000000000000000000000000000000000815260040180806020018281038252602e815260200180614ed1602e913960400191505060405180910390fd5b60008060019054906101000a900460ff161590508015612531576001600060016101000a81548160ff02191690831515021790555060016000806101000a81548160ff0219169083151502179055505b6001606681905550801561255a5760008060016101000a81548160ff0219169083151502179055505b50565b61256561281f565b6125d7576040517f08c379a00000000000000000000000000000000000000000000000000000000081526004018080602001828103825260208152602001807f4f776e61626c653a2063616c6c6572206973206e6f7420746865206f776e657281525060200191505060405180910390fd5b600073ffffffffffffffffffffffffffffffffffffffff1661016f60009054906101000a900473ffffffffffffffffffffffffffffffffffffffff1673ffffffffffffffffffffffffffffffffffffffff161461269c576040517f08c379a00000000000000000000000000000000000000000000000000000000081526004018080602001828103825260198152602001807f626f756e74792077616c6c657420616c7265616479207365740000000000000081525060200191505060405180910390fd5b600073ffffffffffffffffffffffffffffffffffffffff168173ffffffffffffffffffffffffffffffffffffffff16141561273f576040517f08c379a00000000000000000000000000000000000000000000000000000000081526004018080602001828103825260158152602001807f696e76616c696420626f756e74792077616c6c6574000000000000000000000081525060200191505060405180910390fd5b8061016f60006101000a81548173ffffffffffffffffffffffffffffffffffffffff021916908373ffffffffffffffffffffffffffffffffffffffff16021790555050565b6000603360009054906101000a900473ffffffffffffffffffffffffffffffffffffffff16905090565b6127be6127b9610f3b565b611b72565b612813576040517f08c379a0000000000000000000000000000000000000000000000000000000008152600401808060200182810382526030815260200180614faf6030913960400191505060405180910390fd5b61281c81613e0b565b50565b6000603360009054906101000a900473ffffffffffffffffffffffffffffffffffffffff1673ffffffffffffffffffffffffffffffffffffffff16612862610f3b565b73ffffffffffffffffffffffffffffffffffffffff1614905090565b61288661281f565b6128f8576040517f08c379a00000000000000000000000000000000000000000000000000000000081526004018080602001828103825260208152602001807f4f776e61626c653a2063616c6c6572206973206e6f7420746865206f776e657281525060200191505060405180910390fd5b600073ffffffffffffffffffffffffffffffffffffffff1661017060009054906101000a900473ffffffffffffffffffffffffffffffffffffffff1673ffffffffffffffffffffffffffffffffffffffff16146129bd576040517f08c379a00000000000000000000000000000000000000000000000000000000081526004018080602001828103825260198152602001807f7265776172642077616c6c657420616c7265616479207365740000000000000081525060200191505060405180910390fd5b600073ffffffffffffffffffffffffffffffffffffffff168173ffffffffffffffffffffffffffffffffffffffff161415612a60576040517f08c379a00000000000000000000000000000000000000000000000000000000081526004018080602001828103825260168152602001807f696e76616c696420726577617264732077616c6c65740000000000000000000081525060200191505060405180910390fd5b8061017060006101000a81548173ffffffffffffffffffffffffffffffffffffffff021916908373ffffffffffffffffffffffffffffffffffffffff16021790555050565b612aad61281f565b612b1f576040517f08c379a00000000000000000000000000000000000000000000000000000000081526004018080602001828103825260208152602001807f4f776e61626c653a2063616c6c6572206973206e6f7420746865206f776e657281525060200191505060405180910390fd5b612b2881613e66565b50565b600061017354905090565b600061016d54905090565b600061013760008373ffffffffffffffffffffffffffffffffffffffff1673ffffffffffffffffffffffffffffffffffffffff168152602001908152602001600020549050919050565b600060019054906101000a900460ff1680612baa5750612ba9613c36565b5b80612bc157506000809054906101000a900460ff16155b612c16576040517f08c379a000000000000000000000000000000000000000000000000000000000815260040180806020018281038252602e815260200180614ed1602e913960400191505060405180910390fd5b60008060019054906101000a900460ff161590508015612c66576001600060016101000a81548160ff02191690831515021790555060016000806101000a81548160ff0219169083151502179055505b60008411612cdc576040517f08c379a00000000000000000000000000000000000000000000000000000000081526004018080602001828103825260148152602001807f43726f776473616c653a2072617465206973203000000000000000000000000081525060200191505060405180910390fd5b600073ffffffffffffffffffffffffffffffffffffffff168373ffffffffffffffffffffffffffffffffffffffff161415612d62576040517f08c379a0000000000000000000000000000000000000000000000000000000008152600401808060200182810382526025815260200180614f8a6025913960400191505060405180910390fd5b600073ffffffffffffffffffffffffffffffffffffffff168273ffffffffffffffffffffffffffffffffffffffff161415612de8576040517f08c379a0000000000000000000000000000000000000000000000000000000008152600401808060200182810382526024815260200180614e0a6024913960400191505060405180910390fd5b83609b8190555082609a60006101000a81548173ffffffffffffffffffffffffffffffffffffffff021916908373ffffffffffffffffffffffffffffffffffffffff16021790555081609960006101000a81548173ffffffffffffffffffffffffffffffffffffffff021916908373ffffffffffffffffffffffffffffffffffffffff1602179055508015612e925760008060016101000a81548160ff0219169083151502179055505b50505050565b600060cf54905090565b600060019054906101000a900460ff1680612ec15750612ec0613c36565b5b80612ed857506000809054906101000a900460ff16155b612f2d576040517f08c379a000000000000000000000000000000000000000000000000000000000815260040180806020018281038252602e815260200180614ed1602e913960400191505060405180910390fd5b60008060019054906101000a900460ff161590508015612f7d576001600060016101000a81548160ff02191690831515021790555060016000806101000a81548160ff0219169083151502179055505b612f85613f86565b612f8b57fe5b612f9482614048565b8015612fb55760008060016101000a81548160ff0219169083151502179055505b5050565b600061017154905090565b600060019054906101000a900460ff1680612fe35750612fe2613c36565b5b80612ffa57506000809054906101000a900460ff16155b61304f576040517f08c379a000000000000000000000000000000000000000000000000000000000815260040180806020018281038252602e815260200180614ed1602e913960400191505060405180910390fd5b60008060019054906101000a900460ff16159050801561309f576001600060016101000a81548160ff02191690831515021790555060016000806101000a81548160ff0219169083151502179055505b6130a7613f86565b6130ad57fe5b42831015613106576040517f08c379a0000000000000000000000000000000000000000000000000000000008152600401808060200182810382526033815260200180614d556033913960400191505060405180910390fd5b82821161315e576040517f08c379a0000000000000000000000000000000000000000000000000000000008152600401808060200182810382526037815260200180614dd36037913960400191505060405180910390fd5b8260cf819055508160d081905550801561318d5760008060016101000a81548160ff0219169083151502179055505b505050565b600061016f60009054906101000a900473ffffffffffffffffffffffffffffffffffffffff16905090565b6131c561281f565b613237576040517f08c379a00000000000000000000000000000000000000000000000000000000081526004018080602001828103825260208152602001807f4f776e61626c653a2063616c6c6572206973206e6f7420746865206f776e657281525060200191505060405180910390fd5b6132408161415f565b50565b6000609960009054906101000a900473ffffffffffffffffffffffffffffffffffffffff16905090565b60016066600082825401925050819055506000606654905061328d61281f565b6132ff576040517f08c379a00000000000000000000000000000000000000000000000000000000081526004018080602001828103825260208152602001807f4f776e61626c653a2063616c6c6572206973206e6f7420746865206f776e657281525060200191505060405180910390fd5b6000613309613243565b905060608173ffffffffffffffffffffffffffffffffffffffff1663fe9d9303905060e01b86868660405160240180848152602001806020018281038252848482818152602001925080828437600081840152601f19601f820116905080830192505050945050505050604051602081830303815290604052907bffffffffffffffffffffffffffffffffffffffffffffffffffffffff19166020820180517bffffffffffffffffffffffffffffffffffffffffffffffffffffffff8381831617835250505050905060008273ffffffffffffffffffffffffffffffffffffffff16826040518082805190602001908083835b6020831061341f57805182526020820191506020810190506020830392506133fc565b6001836020036101000a0380198251168184511680821785525050505050509050019150506000604051808303816000865af19150503d8060008114613481576040519150601f19603f3d011682016040523d82523d6000602084013e613486565b606091505b50509050806134fd576040517f08c379a00000000000000000000000000000000000000000000000000000000081526004018080602001828103825260128152602001807f455243373737206275726e206661696c6564000000000000000000000000000081525060200191505060405180910390fd5b7fde177d0a24ab63e3e30d4026f8cea4d2dab8b7e27a80459f553fe5abe4935b3a87878760405180848152602001806020018281038252848482818152602001925080828437600081840152601f19601f82011690508083019250505094505050505060405180910390a150505060665481146135e2576040517f08c379a000000000000000000000000000000000000000000000000000000000815260040180806020018281038252601f8152602001807f5265656e7472616e637947756172643a207265656e7472616e742063616c6c0081525060200191505060405180910390fd5b50505050565b6135f282826142a5565b61016d5481101561366b576040517f08c379a00000000000000000000000000000000000000000000000000000000081526004018080602001828103825260168152602001807f746f6f20736d616c6c20636f6e747269627574696f6e0000000000000000000081525060200191505060405180910390fd5b61016a5461369e8261369061017154613682611b90565b61373f90919063ffffffff16565b61373f90919063ffffffff16565b1115613712576040517f08c379a000000000000000000000000000000000000000000000000000000000815260040180806020018281038252600c8152602001807f636170206578636565646564000000000000000000000000000000000000000081525060200191505060405180910390fd5b5050565b60008061372283611c13565b9050613737838261391090919063ffffffff16565b915050919050565b6000808284019050838110156137bd576040517f08c379a000000000000000000000000000000000000000000000000000000000815260040180806020018281038252601b8152602001807f536166654d6174683a206164646974696f6e206f766572666c6f77000000000081525060200191505060405180910390fd5b8091505092915050565b6137d1828261439e565b6137db82826143ac565b6137f1816101725461373f90919063ffffffff16565b610172819055505050565b61380682826144f1565b6138598161013660008573ffffffffffffffffffffffffffffffffffffffff1673ffffffffffffffffffffffffffffffffffffffff1681526020019081526020016000205461373f90919063ffffffff16565b61013660008473ffffffffffffffffffffffffffffffffffffffff1673ffffffffffffffffffffffffffffffffffffffff168152602001908152602001600020819055505050565b609a60009054906101000a900473ffffffffffffffffffffffffffffffffffffffff1673ffffffffffffffffffffffffffffffffffffffff166108fc349081150290604051600060405180830381858888f19350505050158015613909573d6000803e3d6000fd5b50565b5050565b6000808314156139235760009050613990565b600082840290508284828161393457fe5b041461398b576040517f08c379a0000000000000000000000000000000000000000000000000000000008152600401808060200182810382526021815260200180614e8e6021913960400191505060405180910390fd5b809150505b92915050565b60006139d883836040518060400160405280601e81526020017f536166654d6174683a207375627472616374696f6e206f766572666c6f7700008152506144f5565b905092915050565b6000613a2283836040518060400160405280601a81526020017f536166654d6174683a206469766973696f6e206279207a65726f0000000000008152506145b5565b905092915050565b613a5761016e60009054906101000a900473ffffffffffffffffffffffffffffffffffffffff168461467b565b613a8461016f60009054906101000a900473ffffffffffffffffffffffffffffffffffffffff168361467b565b613ab161017060009054906101000a900473ffffffffffffffffffffffffffffffffffffffff168261467b565b7f76aaf3653616a56d66beba4243d917b01fee968c19e7885bb4d7787b95c480ba83838360405180848152602001838152602001828152602001935050505060405180910390a1505050565b60008073ffffffffffffffffffffffffffffffffffffffff168273ffffffffffffffffffffffffffffffffffffffff161415613b84576040517f08c379a0000000000000000000000000000000000000000000000000000000008152600401808060200182810382526022815260200180614eaf6022913960400191505060405180910390fd5b8260000160008373ffffffffffffffffffffffffffffffffffffffff1673ffffffffffffffffffffffffffffffffffffffff16815260200190815260200160002060009054906101000a900460ff16905092915050565b613bf0816101036146cc90919063ffffffff16565b8073ffffffffffffffffffffffffffffffffffffffff167f427400d279c506df610224b22ecce89b693fc1865864113f21c8d19c1f0c2a3b60405160405180910390a250565b6000803090506000813b9050600081149250505090565b600060019054906101000a900460ff1680613c6c5750613c6b613c36565b5b80613c8357506000809054906101000a900460ff16155b613cd8576040517f08c379a000000000000000000000000000000000000000000000000000000000815260040180806020018281038252602e815260200180614ed1602e913960400191505060405180910390fd5b60008060019054906101000a900460ff161590508015613d28576001600060016101000a81548160ff02191690831515021790555060016000806101000a81548160ff0219169083151502179055505b81603360006101000a81548173ffffffffffffffffffffffffffffffffffffffff021916908373ffffffffffffffffffffffffffffffffffffffff160217905550603360009054906101000a900473ffffffffffffffffffffffffffffffffffffffff1673ffffffffffffffffffffffffffffffffffffffff16600073ffffffffffffffffffffffffffffffffffffffff167f8be0079c531659141344cd1fd0a4f28419497f9722a3daafe3b4186f6b6457e060405160405180910390a38015613e075760008060016101000a81548160ff0219169083151502179055505b5050565b613e208161010361478990919063ffffffff16565b8073ffffffffffffffffffffffffffffffffffffffff167fa7555c95b69d4f5cc847881feb4ab2883a1921319e34fa2043747b793d65b36e60405160405180910390a250565b613e6e611256565b15613ee1576040517f08c379a000000000000000000000000000000000000000000000000000000000815260040180806020018281038252601e8152602001807f54696d656443726f776473616c653a20616c726561647920636c6f736564000081525060200191505060405180910390fd5b60d0548111613f3b576040517f08c379a000000000000000000000000000000000000000000000000000000000815260040180806020018281038252603f815260200180614e4f603f913960400191505060405180910390fd5b7f46711e222f558a07afd26e5e71b48ecb0a8b2cdcd40faeb1323e05e2c76a2f3260d05482604051808381526020018281526020019250505060405180910390a18060d08190555050565b600080609b54118015613fe85750600073ffffffffffffffffffffffffffffffffffffffff16609a60009054906101000a900473ffffffffffffffffffffffffffffffffffffffff1673ffffffffffffffffffffffffffffffffffffffff1614155b80156140435750600073ffffffffffffffffffffffffffffffffffffffff16609960009054906101000a900473ffffffffffffffffffffffffffffffffffffffff1673ffffffffffffffffffffffffffffffffffffffff1614155b905090565b600060019054906101000a900460ff16806140675750614066613c36565b5b8061407e57506000809054906101000a900460ff16155b6140d3576040517f08c379a000000000000000000000000000000000000000000000000000000000815260040180806020018281038252602e815260200180614ed1602e913960400191505060405180910390fd5b60008060019054906101000a900460ff161590508015614123576001600060016101000a81548160ff02191690831515021790555060016000806101000a81548160ff0219169083151502179055505b61412c82611b72565b61413a5761413982613e0b565b5b801561415b5760008060016101000a81548160ff0219169083151502179055505b5050565b600073ffffffffffffffffffffffffffffffffffffffff168173ffffffffffffffffffffffffffffffffffffffff1614156141e5576040517f08c379a0000000000000000000000000000000000000000000000000000000008152600401808060200182810382526026815260200180614d886026913960400191505060405180910390fd5b8073ffffffffffffffffffffffffffffffffffffffff16603360009054906101000a900473ffffffffffffffffffffffffffffffffffffffff1673ffffffffffffffffffffffffffffffffffffffff167f8be0079c531659141344cd1fd0a4f28419497f9722a3daafe3b4186f6b6457e060405160405180910390a380603360006101000a81548173ffffffffffffffffffffffffffffffffffffffff021916908373ffffffffffffffffffffffffffffffffffffffff16021790555050565b6142af8282614864565b61013760008373ffffffffffffffffffffffffffffffffffffffff1673ffffffffffffffffffffffffffffffffffffffff168152602001908152602001600020546143438261013660008673ffffffffffffffffffffffffffffffffffffffff1673ffffffffffffffffffffffffffffffffffffffff1681526020019081526020016000205461373f90919063ffffffff16565b111561439a576040517f08c379a0000000000000000000000000000000000000000000000000000000008152600401808060200182810382526037815260200180614f296037913960400191505060405180910390fd5b5050565b6143a8828261467b565b5050565b60006143b6613243565b90508073ffffffffffffffffffffffffffffffffffffffff16638e37c2a684846040518363ffffffff1660e01b8152600401808373ffffffffffffffffffffffffffffffffffffffff1673ffffffffffffffffffffffffffffffffffffffff16815260200182815260200192505050602060405180830381600087803b15801561443f57600080fd5b505af1158015614453573d6000803e3d6000fd5b505050506040513d602081101561446957600080fd5b81019080805190602001909291905050506144ec576040517f08c379a00000000000000000000000000000000000000000000000000000000081526004018080602001828103825260158152602001807f546f6b656e73206c6f636b696e67206661696c6564000000000000000000000081525060200191505060405180910390fd5b505050565b5050565b60008383111582906145a2576040517f08c379a00000000000000000000000000000000000000000000000000000000081526004018080602001828103825283818151815260200191508051906020019080838360005b8381101561456757808201518184015260208101905061454c565b50505050905090810190601f1680156145945780820380516001836020036101000a031916815260200191505b509250505060405180910390fd5b5060008385039050809150509392505050565b60008083118290614661576040517f08c379a00000000000000000000000000000000000000000000000000000000081526004018080602001828103825283818151815260200191508051906020019080838360005b8381101561462657808201518184015260208101905061460b565b50505050905090810190601f1680156146535780820380516001836020036101000a031916815260200191505b509250505060405180910390fd5b50600083858161466d57fe5b049050809150509392505050565b6146c88282609960009054906101000a900473ffffffffffffffffffffffffffffffffffffffff1673ffffffffffffffffffffffffffffffffffffffff166148ec9092919063ffffffff16565b5050565b6146d68282613afd565b61472b576040517f08c379a0000000000000000000000000000000000000000000000000000000008152600401808060200182810382526021815260200180614e2e6021913960400191505060405180910390fd5b60008260000160008373ffffffffffffffffffffffffffffffffffffffff1673ffffffffffffffffffffffffffffffffffffffff16815260200190815260200160002060006101000a81548160ff0219169083151502179055505050565b6147938282613afd565b15614806576040517f08c379a000000000000000000000000000000000000000000000000000000000815260040180806020018281038252601f8152602001807f526f6c65733a206163636f756e7420616c72656164792068617320726f6c650081525060200191505060405180910390fd5b60018260000160008373ffffffffffffffffffffffffffffffffffffffff1673ffffffffffffffffffffffffffffffffffffffff16815260200190815260200160002060006101000a81548160ff0219169083151502179055505050565b61486c611b9a565b6148de576040517f08c379a00000000000000000000000000000000000000000000000000000000081526004018080602001828103825260188152602001807f54696d656443726f776473616c653a206e6f74206f70656e000000000000000081525060200191505060405180910390fd5b6148e882826149bd565b5050565b6149b8838473ffffffffffffffffffffffffffffffffffffffff1663a9059cbb905060e01b8484604051602401808373ffffffffffffffffffffffffffffffffffffffff1673ffffffffffffffffffffffffffffffffffffffff16815260200182815260200192505050604051602081830303815290604052907bffffffffffffffffffffffffffffffffffffffffffffffffffffffff19166020820180517bffffffffffffffffffffffffffffffffffffffffffffffffffffffff8381831617835250505050614abe565b505050565b600073ffffffffffffffffffffffffffffffffffffffff168273ffffffffffffffffffffffffffffffffffffffff161415614a43576040517f08c379a000000000000000000000000000000000000000000000000000000000815260040180806020018281038252602a815260200180614eff602a913960400191505060405180910390fd5b6000811415614aba576040517f08c379a00000000000000000000000000000000000000000000000000000000081526004018080602001828103825260198152602001807f43726f776473616c653a20776569416d6f756e7420697320300000000000000081525060200191505060405180910390fd5b5050565b614add8273ffffffffffffffffffffffffffffffffffffffff16614d09565b614b4f576040517f08c379a000000000000000000000000000000000000000000000000000000000815260040180806020018281038252601f8152602001807f5361666545524332303a2063616c6c20746f206e6f6e2d636f6e74726163740081525060200191505060405180910390fd5b600060608373ffffffffffffffffffffffffffffffffffffffff16836040518082805190602001908083835b60208310614b9e5780518252602082019150602081019050602083039250614b7b565b6001836020036101000a0380198251168184511680821785525050505050509050019150506000604051808303816000865af19150503d8060008114614c00576040519150601f19603f3d011682016040523d82523d6000602084013e614c05565b606091505b509150915081614c7d576040517f08c379a00000000000000000000000000000000000000000000000000000000081526004018080602001828103825260208152602001807f5361666545524332303a206c6f772d6c6576656c2063616c6c206661696c656481525060200191505060405180910390fd5b600081511115614d0357808060200190516020811015614c9c57600080fd5b8101908080519060200190929190505050614d02576040517f08c379a000000000000000000000000000000000000000000000000000000000815260040180806020018281038252602a815260200180614f60602a913960400191505060405180910390fd5b5b50505050565b60008060007fc5d2460186f7233c927e7db2dcc703c0e500b653ca82273b7bfad8045d85a47060001b9050833f91506000801b8214158015614d4b5750808214155b9250505091905056fe54696d656443726f776473616c653a206f70656e696e672074696d65206973206265666f72652063757272656e742074696d654f776e61626c653a206e6577206f776e657220697320746865207a65726f2061646472657373455243373737526563697069656e743a20696e76616c69642066726f6d206164647265737354696d656443726f776473616c653a206f70656e696e672074696d65206973206e6f74206265666f726520636c6f73696e672074696d6543726f776473616c653a20746f6b656e20697320746865207a65726f2061646472657373526f6c65733a206163636f756e7420646f6573206e6f74206861766520726f6c6554696d656443726f776473616c653a206e657720636c6f73696e672074696d65206973206265666f72652063757272656e7420636c6f73696e672074696d65536166654d6174683a206d756c7469706c69636174696f6e206f766572666c6f77526f6c65733a206163636f756e7420697320746865207a65726f2061646472657373436f6e747261637420696e7374616e63652068617320616c7265616479206265656e20696e697469616c697a656443726f776473616c653a2062656e656669636961727920697320746865207a65726f2061646472657373496e646976696475616c6c7943617070656443726f776473616c653a2062656e65666963696172792773206361702065786365656465645361666545524332303a204552433230206f7065726174696f6e20646964206e6f74207375636365656443726f776473616c653a2077616c6c657420697320746865207a65726f2061646472657373436170706572526f6c653a2063616c6c657220646f6573206e6f742068617665207468652043617070657220726f6c65a265627a7a72315820e06fe043d5673b1a0a86577a1e20fd6c560bae5177eca7daaa8c4d3b8e3254d264736f6c63430005100032",
  "compiler": {
    "name": "solc",
    "version": "0.5.16+commit.9c3226ce.Emscripten.clang",
    "optimizer": {
      "enabled": false,
      "runs": 200
    },
    "evmVersion": "petersburg"
  }
}