{
  "fileName": "Vestable.sol",
  "contractName": "Vestable",
  "source": "pragma solidity ^0.5.0;\n\nimport \"@openzeppelin/contracts-ethereum-package/contracts/math/SafeMath.sol\";\n\n/**\n * @title Contract for ERC777 token extended with optional support of a vesting schedule\n *\n * @notice Certain amount of tokens may be locked in for a holder\n * so the holder will only be able to transfer locked tokens out of their wallet\n * after they have vested.\n *\n * @dev Inheriting contracts MUST redefine functions\n */\ncontract Vestable {\n    using SafeMath for uint256;\n\n    // Amount of tokens originally locked (before any unlocking) for all holders\n    uint256 _totalLocked;\n\n    // Amount of tokens originally locked (before any unlocking) for a holder\n    mapping(address => uint256) private _locked;\n\n    event TokensLocked(address indexed holder, uint256 amount);\n\n    /**\n     * @dev Get amount of tokens of a holder being locked right now.\n     * @param holder Address of the holder\n     * @return Amount of tokens still locked in\n     */\n    function lockedNow(address holder) public view returns (uint256) {\n        return lockedAt(holder, block.timestamp);\n    }\n\n    /**\n     * @dev Get amount of tokens of a holder locked in at a certain time.\n     * @param holder Address of the holder\n     * @param time The UNIX time to calculate locked-in tokens at\n     * @return Amount of tokens still locked in\n     */\n    function lockedAt(address holder, uint256 time) public view returns (uint256) {\n        uint256 end = _vestingEnd();\n        if (time >= end) { return 0; }\n\n        uint256 lockedAmount = _locked[holder];\n        if (lockedAmount > 0) {\n            uint256 start = _vestingStart();\n            if (time > start) {\n                return lockedAmount.mul(end.sub(time)).div(end.sub(start));\n            } else {\n                return lockedAmount;\n            }\n        }\n        return 0;\n    }\n\n    /**\n     * @dev Get amount of tokens of a holder which were locked in.\n     * @param holder Address of the holder\n     * @return Amount of tokens of a holder which was locked in\n     */\n    function locked(address holder) public view returns (uint256) {\n        return _locked[holder];\n    }\n\n    /**\n     * @dev Get the amount of tokens which were locked in for all holders.\n     * @return Amount of tokens\n     */\n    function totalLocked() public view returns (uint256) {\n        return _totalLocked;\n    }\n\n    /*\n     * @return Unix time when the vesting period begins\n     */\n    function vestingStart() public pure returns (uint256) {\n        return _vestingStart();\n    }\n\n    /*\n     * @return Unix time when the vesting period ends\n     */\n    function vestingEnd() public pure returns (uint256) {\n        return _vestingEnd();\n    }\n\n    /**\n     * @dev Lock in given amount of tokens for a holder\n     * no matter if the holder has this token amount or not yet.\n     * @param holder Address of the holder\n     * @param amount Token amount to lock in\n     */\n    function _lockIn(address holder, uint256 amount) internal {\n        require(holder != address(0), \"VestedTokens: zero holder address\");\n        require(_vestingEnd() > block.timestamp, \"VestedTokens: vesting period ended\");\n\n        _totalLocked = _totalLocked.add(amount);\n        _locked[holder] = _locked[holder].add(amount);\n        emit TokensLocked(holder, amount);\n    }\n\n    /*\n     * @dev Inheriting contracts MUST redefine it\n     * returning UNIX time for the vesting period start\n     */\n    function _vestingStart() private pure returns (uint256) {\n        revert(\"must be redefined\");\n    }\n\n    /*\n     * @dev Inheriting contracts MUST redefine it\n     * returning UNIX time for the vesting period end\n     */\n    function _vestingEnd() private pure returns (uint256) {\n        revert(\"must be redefined\");\n    }\n\n    uint256[50] private ______gap;\n}\n",
  "sourcePath": "contracts/Vestable.sol",
  "abi": [
    {
      "anonymous": false,
      "inputs": [
        {
          "indexed": true,
          "internalType": "address",
          "name": "holder",
          "type": "address"
        },
        {
          "indexed": false,
          "internalType": "uint256",
          "name": "amount",
          "type": "uint256"
        }
      ],
      "name": "TokensLocked",
      "type": "event"
    },
    {
      "constant": true,
      "inputs": [
        {
          "internalType": "address",
          "name": "holder",
          "type": "address"
        }
      ],
      "name": "locked",
      "outputs": [
        {
          "internalType": "uint256",
          "name": "",
          "type": "uint256"
        }
      ],
      "payable": false,
      "stateMutability": "view",
      "type": "function"
    },
    {
      "constant": true,
      "inputs": [
        {
          "internalType": "address",
          "name": "holder",
          "type": "address"
        },
        {
          "internalType": "uint256",
          "name": "time",
          "type": "uint256"
        }
      ],
      "name": "lockedAt",
      "outputs": [
        {
          "internalType": "uint256",
          "name": "",
          "type": "uint256"
        }
      ],
      "payable": false,
      "stateMutability": "view",
      "type": "function"
    },
    {
      "constant": true,
      "inputs": [
        {
          "internalType": "address",
          "name": "holder",
          "type": "address"
        }
      ],
      "name": "lockedNow",
      "outputs": [
        {
          "internalType": "uint256",
          "name": "",
          "type": "uint256"
        }
      ],
      "payable": false,
      "stateMutability": "view",
      "type": "function"
    },
    {
      "constant": true,
      "inputs": [],
      "name": "totalLocked",
      "outputs": [
        {
          "internalType": "uint256",
          "name": "",
          "type": "uint256"
        }
      ],
      "payable": false,
      "stateMutability": "view",
      "type": "function"
    },
    {
      "constant": true,
      "inputs": [],
      "name": "vestingEnd",
      "outputs": [
        {
          "internalType": "uint256",
          "name": "",
          "type": "uint256"
        }
      ],
      "payable": false,
      "stateMutability": "pure",
      "type": "function"
    },
    {
      "constant": true,
      "inputs": [],
      "name": "vestingStart",
      "outputs": [
        {
          "internalType": "uint256",
          "name": "",
          "type": "uint256"
        }
      ],
      "payable": false,
      "stateMutability": "pure",
      "type": "function"
    }
  ],
  "bytecode": "0x608060405234801561001057600080fd5b50610716806100206000396000f3fe608060405234801561001057600080fd5b50600436106100625760003560e01c8063254800d4146100675780634935f3671461008557806356891412146100e75780636e86731b1461010557806384a1931f1461015d578063cbf9fe5f1461017b575b600080fd5b61006f6101d3565b6040518082815260200191505060405180910390f35b6100d16004803603604081101561009b57600080fd5b81019080803573ffffffffffffffffffffffffffffffffffffffff169060200190929190803590602001909291905050506101e2565b6040518082815260200191505060405180910390f35b6100ef6102cc565b6040518082815260200191505060405180910390f35b6101476004803603602081101561011b57600080fd5b81019080803573ffffffffffffffffffffffffffffffffffffffff1690602001909291905050506102d5565b6040518082815260200191505060405180910390f35b6101656102e8565b6040518082815260200191505060405180910390f35b6101bd6004803603602081101561019157600080fd5b81019080803573ffffffffffffffffffffffffffffffffffffffff1690602001909291905050506102f7565b6040518082815260200191505060405180910390f35b60006101dd610340565b905090565b6000806101ed6103b0565b90508083106102005760009150506102c6565b6000600160008673ffffffffffffffffffffffffffffffffffffffff1673ffffffffffffffffffffffffffffffffffffffff16815260200190815260200160002054905060008111156102bf576000610257610340565b9050808511156102b4576102aa610277828561042090919063ffffffff16565b61029c61028d888761042090919063ffffffff16565b8561046a90919063ffffffff16565b6104f090919063ffffffff16565b93505050506102c6565b8193505050506102c6565b6000925050505b92915050565b60008054905090565b60006102e182426101e2565b9050919050565b60006102f26103b0565b905090565b6000600160008373ffffffffffffffffffffffffffffffffffffffff1673ffffffffffffffffffffffffffffffffffffffff168152602001908152602001600020549050919050565b60006040517f08c379a00000000000000000000000000000000000000000000000000000000081526004018080602001828103825260118152602001807f6d757374206265207265646566696e656400000000000000000000000000000081525060200191505060405180910390fd5b60006040517f08c379a00000000000000000000000000000000000000000000000000000000081526004018080602001828103825260118152602001807f6d757374206265207265646566696e656400000000000000000000000000000081525060200191505060405180910390fd5b600061046283836040518060400160405280601e81526020017f536166654d6174683a207375627472616374696f6e206f766572666c6f77000081525061053a565b905092915050565b60008083141561047d57600090506104ea565b600082840290508284828161048e57fe5b04146104e5576040517f08c379a00000000000000000000000000000000000000000000000000000000081526004018080602001828103825260218152602001806106c16021913960400191505060405180910390fd5b809150505b92915050565b600061053283836040518060400160405280601a81526020017f536166654d6174683a206469766973696f6e206279207a65726f0000000000008152506105fa565b905092915050565b60008383111582906105e7576040517f08c379a00000000000000000000000000000000000000000000000000000000081526004018080602001828103825283818151815260200191508051906020019080838360005b838110156105ac578082015181840152602081019050610591565b50505050905090810190601f1680156105d95780820380516001836020036101000a031916815260200191505b509250505060405180910390fd5b5060008385039050809150509392505050565b600080831182906106a6576040517f08c379a00000000000000000000000000000000000000000000000000000000081526004018080602001828103825283818151815260200191508051906020019080838360005b8381101561066b578082015181840152602081019050610650565b50505050905090810190601f1680156106985780820380516001836020036101000a031916815260200191505b509250505060405180910390fd5b5060008385816106b257fe5b04905080915050939250505056fe536166654d6174683a206d756c7469706c69636174696f6e206f766572666c6f77a265627a7a72315820c1988c79ce8e90f95719447540d06dcbd1aa1768f68cd2373095d6a0fd69a18864736f6c63430005100032",
  "compiler": {
    "name": "solc",
    "version": "0.5.16+commit.9c3226ce.Emscripten.clang",
    "optimizer": {
      "enabled": false,
      "runs": 200
    },
    "evmVersion": "petersburg"
  }
}